{
  "contractName": "SKR",
  "abi": [
    {
      "inputs": [
        {
          "internalType": "uint256",
          "name": "_initialSupply",
          "type": "uint256"
        }
      ],
      "payable": false,
      "stateMutability": "nonpayable",
      "type": "constructor"
    },
    {
      "anonymous": false,
      "inputs": [
        {
          "indexed": true,
          "internalType": "address",
          "name": "_owner",
          "type": "address"
        },
        {
          "indexed": true,
          "internalType": "address",
          "name": "_spender",
          "type": "address"
        },
        {
          "indexed": false,
          "internalType": "uint256",
          "name": "_value",
          "type": "uint256"
        }
      ],
      "name": "Approval",
      "type": "event"
    },
    {
      "anonymous": false,
      "inputs": [
        {
          "indexed": true,
          "internalType": "address",
          "name": "_from",
          "type": "address"
        },
        {
          "indexed": true,
          "internalType": "address",
          "name": "_to",
          "type": "address"
        },
        {
          "indexed": false,
          "internalType": "uint256",
          "name": "_value",
          "type": "uint256"
        }
      ],
      "name": "Transfer",
      "type": "event"
    },
    {
      "constant": true,
      "inputs": [
        {
          "internalType": "address",
          "name": "",
          "type": "address"
        },
        {
          "internalType": "address",
          "name": "",
          "type": "address"
        }
      ],
      "name": "allowance",
      "outputs": [
        {
          "internalType": "uint256",
          "name": "",
          "type": "uint256"
        }
      ],
      "payable": false,
      "stateMutability": "view",
      "type": "function"
    },
    {
      "constant": true,
      "inputs": [
        {
          "internalType": "address",
          "name": "",
          "type": "address"
        }
      ],
      "name": "balanceOf",
      "outputs": [
        {
          "internalType": "uint256",
          "name": "",
          "type": "uint256"
        }
      ],
      "payable": false,
      "stateMutability": "view",
      "type": "function"
    },
    {
      "constant": true,
      "inputs": [],
      "name": "ipfsHash",
      "outputs": [
        {
          "internalType": "string",
          "name": "",
          "type": "string"
        }
      ],
      "payable": false,
      "stateMutability": "view",
      "type": "function"
    },
    {
      "constant": true,
      "inputs": [],
      "name": "name",
      "outputs": [
        {
          "internalType": "string",
          "name": "",
          "type": "string"
        }
      ],
      "payable": false,
      "stateMutability": "view",
      "type": "function"
    },
    {
      "constant": true,
      "inputs": [],
      "name": "owner",
      "outputs": [
        {
          "internalType": "address",
          "name": "",
          "type": "address"
        }
      ],
      "payable": false,
      "stateMutability": "view",
      "type": "function"
    },
    {
      "constant": true,
      "inputs": [],
      "name": "symbol",
      "outputs": [
        {
          "internalType": "string",
          "name": "",
          "type": "string"
        }
      ],
      "payable": false,
      "stateMutability": "view",
      "type": "function"
    },
    {
      "constant": true,
      "inputs": [],
      "name": "totalSupply",
      "outputs": [
        {
          "internalType": "uint256",
          "name": "",
          "type": "uint256"
        }
      ],
      "payable": false,
      "stateMutability": "view",
      "type": "function"
    },
    {
      "constant": false,
      "inputs": [
        {
          "internalType": "address",
          "name": "_to",
          "type": "address"
        },
        {
          "internalType": "uint256",
          "name": "_value",
          "type": "uint256"
        }
      ],
      "name": "transfer",
      "outputs": [
        {
          "internalType": "bool",
          "name": "success",
          "type": "bool"
        }
      ],
      "payable": false,
      "stateMutability": "nonpayable",
      "type": "function"
    },
    {
      "constant": false,
      "inputs": [
        {
          "internalType": "address",
          "name": "_spender",
          "type": "address"
        },
        {
          "internalType": "uint256",
          "name": "_value",
          "type": "uint256"
        }
      ],
      "name": "approve",
      "outputs": [
        {
          "internalType": "bool",
          "name": "success",
          "type": "bool"
        }
      ],
      "payable": false,
      "stateMutability": "nonpayable",
      "type": "function"
    },
    {
      "constant": false,
      "inputs": [
        {
          "internalType": "address",
          "name": "_from",
          "type": "address"
        },
        {
          "internalType": "address",
          "name": "_to",
          "type": "address"
        },
        {
          "internalType": "uint256",
          "name": "_value",
          "type": "uint256"
        }
      ],
      "name": "transferFrom",
      "outputs": [
        {
          "internalType": "bool",
          "name": "success",
          "type": "bool"
        }
      ],
      "payable": false,
      "stateMutability": "nonpayable",
      "type": "function"
    },
    {
      "constant": false,
      "inputs": [
        {
          "internalType": "string",
          "name": "_x",
          "type": "string"
        }
      ],
      "name": "sendHash",
      "outputs": [],
      "payable": false,
      "stateMutability": "nonpayable",
      "type": "function"
    },
    {
      "constant": true,
      "inputs": [],
      "name": "getHash",
      "outputs": [
        {
          "internalType": "string",
          "name": "",
          "type": "string"
        }
      ],
      "payable": false,
      "stateMutability": "view",
      "type": "function"
    },
    {
      "constant": false,
      "inputs": [
        {
          "internalType": "address",
          "name": "_teacherAddress",
          "type": "address"
        }
      ],
      "name": "addTeacher",
      "outputs": [],
      "payable": false,
      "stateMutability": "nonpayable",
      "type": "function"
    },
    {
      "constant": true,
      "inputs": [
        {
          "internalType": "address",
          "name": "_teacherAddress",
          "type": "address"
        }
      ],
      "name": "verifyTeacher",
      "outputs": [
        {
          "internalType": "bool",
          "name": "",
          "type": "bool"
        }
      ],
      "payable": false,
      "stateMutability": "view",
      "type": "function"
    },
    {
      "constant": false,
      "inputs": [
        {
          "internalType": "address",
          "name": "_studentAddress",
          "type": "address"
        },
        {
          "internalType": "string",
          "name": "_hash",
          "type": "string"
        },
        {
          "internalType": "uint256",
          "name": "_amount",
          "type": "uint256"
        }
      ],
      "name": "payStudent",
      "outputs": [],
      "payable": false,
      "stateMutability": "nonpayable",
      "type": "function"
    }
  ],
  "bytecode": "0x60806040526040518060400160405280600c81526020017f5363686f6f6c204b726f6e650000000000000000000000000000000000000000815250600390805190602001906200005192919062000166565b506040518060400160405280600381526020017f534b520000000000000000000000000000000000000000000000000000000000815250600490805190602001906200009f92919062000166565b50348015620000ad57600080fd5b50604051620015d8380380620015d88339818101604052620000d391908101906200022c565b80600160003373ffffffffffffffffffffffffffffffffffffffff1673ffffffffffffffffffffffffffffffffffffffff168152602001908152602001600020819055508060008190555033600660006101000a81548173ffffffffffffffffffffffffffffffffffffffff021916908373ffffffffffffffffffffffffffffffffffffffff160217905550506200027c565b828054600181600116156101000203166002900490600052602060002090601f016020900481019282601f10620001a957805160ff1916838001178555620001da565b82800160010185558215620001da579182015b82811115620001d9578251825591602001919060010190620001bc565b5b509050620001e99190620001ed565b5090565b6200021291905b808211156200020e576000816000905550600101620001f4565b5090565b90565b600081519050620002268162000262565b92915050565b6000602082840312156200023f57600080fd5b60006200024f8482850162000215565b91505092915050565b6000819050919050565b6200026d8162000258565b81146200027957600080fd5b50565b61134c806200028c6000396000f3fe608060405234801561001057600080fd5b50600436106100f55760003560e01c806395d89b4111610097578063d13319c411610066578063d13319c41461029c578063dd62ed3e146102ba578063dfb29935146102ea578063f893e15314610306576100f5565b806395d89b4114610200578063a9059cbb1461021e578063b5eb16b01461024e578063c623674f1461027e576100f5565b806323b872dd116100d357806323b872dd146101665780633bc6e3091461019657806370a08231146101b25780638da5cb5b146101e2576100f5565b806306fdde03146100fa578063095ea7b31461011857806318160ddd14610148575b600080fd5b610102610322565b60405161010f9190611121565b60405180910390f35b610132600480360361012d9190810190610f4f565b6103c0565b60405161013f9190611106565b60405180910390f35b6101506104b2565b60405161015d91906111a5565b60405180910390f35b610180600480360361017b9190810190610e99565b6104b8565b60405161018d9190611106565b60405180910390f35b6101b060048036036101ab9190810190610e34565b610723565b005b6101cc60048036036101c79190810190610e34565b61080e565b6040516101d991906111a5565b60405180910390f35b6101ea610826565b6040516101f791906110eb565b60405180910390f35b61020861084c565b6040516102159190611121565b60405180910390f35b61023860048036036102339190810190610f4f565b6108ea565b6040516102459190611106565b60405180910390f35b61026860048036036102639190810190610e34565b610a41565b6040516102759190611106565b60405180910390f35b610286610a9c565b6040516102939190611121565b60405180910390f35b6102a4610b3a565b6040516102b19190611143565b60405180910390f35b6102d460048036036102cf9190810190610e5d565b610bdc565b6040516102e191906111a5565b60405180910390f35b61030460048036036102ff9190810190610f8b565b610c01565b005b610320600480360361031b9190810190610ee8565b610c1b565b005b60038054600181600116156101000203166002900480601f0160208091040260200160405190810160405280929190818152602001828054600181600116156101000203166002900480156103b85780601f1061038d576101008083540402835291602001916103b8565b820191906000526020600020905b81548152906001019060200180831161039b57829003601f168201915b505050505081565b600081600260003373ffffffffffffffffffffffffffffffffffffffff1673ffffffffffffffffffffffffffffffffffffffff16815260200190815260200160002060008573ffffffffffffffffffffffffffffffffffffffff1673ffffffffffffffffffffffffffffffffffffffff168152602001908152602001600020819055508273ffffffffffffffffffffffffffffffffffffffff163373ffffffffffffffffffffffffffffffffffffffff167f8c5be1e5ebec7d5bd14f71427d1e84f3dd0314c0f7b2291e5b200ac8c7c3b925846040516104a091906111a5565b60405180910390a36001905092915050565b60005481565b6000600160008573ffffffffffffffffffffffffffffffffffffffff1673ffffffffffffffffffffffffffffffffffffffff1681526020019081526020016000205482111561050657600080fd5b600260008573ffffffffffffffffffffffffffffffffffffffff1673ffffffffffffffffffffffffffffffffffffffff16815260200190815260200160002060003373ffffffffffffffffffffffffffffffffffffffff1673ffffffffffffffffffffffffffffffffffffffff1681526020019081526020016000205482111561058f57600080fd5b81600160008673ffffffffffffffffffffffffffffffffffffffff1673ffffffffffffffffffffffffffffffffffffffff1681526020019081526020016000206000828254039250508190555081600160008573ffffffffffffffffffffffffffffffffffffffff1673ffffffffffffffffffffffffffffffffffffffff1681526020019081526020016000206000828254019250508190555081600260008673ffffffffffffffffffffffffffffffffffffffff1673ffffffffffffffffffffffffffffffffffffffff16815260200190815260200160002060003373ffffffffffffffffffffffffffffffffffffffff1673ffffffffffffffffffffffffffffffffffffffff168152602001908152602001600020600082825403925050819055508273ffffffffffffffffffffffffffffffffffffffff168473ffffffffffffffffffffffffffffffffffffffff167fddf252ad1be2c89b69c2b068fc378daa952ba7f163c4a11628f55a4df523b3ef8460405161071091906111a5565b60405180910390a3600190509392505050565b600660009054906101000a900473ffffffffffffffffffffffffffffffffffffffff1673ffffffffffffffffffffffffffffffffffffffff163373ffffffffffffffffffffffffffffffffffffffff16146107b3576040517f08c379a00000000000000000000000000000000000000000000000000000000081526004016107aa90611165565b60405180910390fd5b6001600760008373ffffffffffffffffffffffffffffffffffffffff1673ffffffffffffffffffffffffffffffffffffffff16815260200190815260200160002060006101000a81548160ff02191690831515021790555050565b60016020528060005260406000206000915090505481565b600660009054906101000a900473ffffffffffffffffffffffffffffffffffffffff1681565b60048054600181600116156101000203166002900480601f0160208091040260200160405190810160405280929190818152602001828054600181600116156101000203166002900480156108e25780601f106108b7576101008083540402835291602001916108e2565b820191906000526020600020905b8154815290600101906020018083116108c557829003601f168201915b505050505081565b600081600160003373ffffffffffffffffffffffffffffffffffffffff1673ffffffffffffffffffffffffffffffffffffffff16815260200190815260200160002054101561093857600080fd5b81600160003373ffffffffffffffffffffffffffffffffffffffff1673ffffffffffffffffffffffffffffffffffffffff1681526020019081526020016000206000828254039250508190555081600160008573ffffffffffffffffffffffffffffffffffffffff1673ffffffffffffffffffffffffffffffffffffffff168152602001908152602001600020600082825401925050819055508273ffffffffffffffffffffffffffffffffffffffff163373ffffffffffffffffffffffffffffffffffffffff167fddf252ad1be2c89b69c2b068fc378daa952ba7f163c4a11628f55a4df523b3ef84604051610a2f91906111a5565b60405180910390a36001905092915050565b600080600760008473ffffffffffffffffffffffffffffffffffffffff1673ffffffffffffffffffffffffffffffffffffffff16815260200190815260200160002060009054906101000a900460ff16905080915050919050565b60058054600181600116156101000203166002900480601f016020809104026020016040519081016040528092919081815260200182805460018160011615610100020316600290048015610b325780601f10610b0757610100808354040283529160200191610b32565b820191906000526020600020905b815481529060010190602001808311610b1557829003601f168201915b505050505081565b606060058054600181600116156101000203166002900480601f016020809104026020016040519081016040528092919081815260200182805460018160011615610100020316600290048015610bd25780601f10610ba757610100808354040283529160200191610bd2565b820191906000526020600020905b815481529060010190602001808311610bb557829003601f168201915b5050505050905090565b6002602052816000526040600020602052806000526040600020600091509150505481565b8060059080519060200190610c17929190610d11565b5050565b33600660009054906101000a900473ffffffffffffffffffffffffffffffffffffffff1673ffffffffffffffffffffffffffffffffffffffff163373ffffffffffffffffffffffffffffffffffffffff161480610cc15750600760008273ffffffffffffffffffffffffffffffffffffffff1673ffffffffffffffffffffffffffffffffffffffff16815260200190815260200160002060009054906101000a900460ff165b610d00576040517f08c379a0000000000000000000000000000000000000000000000000000000008152600401610cf790611185565b60405180910390fd5b610d0a84836108ea565b5050505050565b828054600181600116156101000203166002900490600052602060002090601f016020900481019282601f10610d5257805160ff1916838001178555610d80565b82800160010185558215610d80579182015b82811115610d7f578251825591602001919060010190610d64565b5b509050610d8d9190610d91565b5090565b610db391905b80821115610daf576000816000905550600101610d97565b5090565b90565b600081359050610dc5816112db565b92915050565b600082601f830112610ddc57600080fd5b8135610def610dea826111ed565b6111c0565b91508082526020830160208301858383011115610e0b57600080fd5b610e16838284611288565b50505092915050565b600081359050610e2e816112f2565b92915050565b600060208284031215610e4657600080fd5b6000610e5484828501610db6565b91505092915050565b60008060408385031215610e7057600080fd5b6000610e7e85828601610db6565b9250506020610e8f85828601610db6565b9150509250929050565b600080600060608486031215610eae57600080fd5b6000610ebc86828701610db6565b9350506020610ecd86828701610db6565b9250506040610ede86828701610e1f565b9150509250925092565b600080600060608486031215610efd57600080fd5b6000610f0b86828701610db6565b935050602084013567ffffffffffffffff811115610f2857600080fd5b610f3486828701610dcb565b9250506040610f4586828701610e1f565b9150509250925092565b60008060408385031215610f6257600080fd5b6000610f7085828601610db6565b9250506020610f8185828601610e1f565b9150509250929050565b600060208284031215610f9d57600080fd5b600082013567ffffffffffffffff811115610fb757600080fd5b610fc384828501610dcb565b91505092915050565b610fd581611240565b82525050565b610fe481611252565b82525050565b6000610ff582611224565b610fff818561122f565b935061100f818560208601611297565b611018816112ca565b840191505092915050565b600061102e82611219565b611038818561122f565b9350611048818560208601611297565b611051816112ca565b840191505092915050565b600061106960208361122f565b91507f4f776e61626c653a2063616c6c6572206973206e6f7420746865206f776e65726000830152602082019050919050565b60006110a960168361122f565b91507f596f75206e65656420746f20626520616c6c6f776564000000000000000000006000830152602082019050919050565b6110e58161127e565b82525050565b60006020820190506111006000830184610fcc565b92915050565b600060208201905061111b6000830184610fdb565b92915050565b6000602082019050818103600083015261113b8184611023565b905092915050565b6000602082019050818103600083015261115d8184610fea565b905092915050565b6000602082019050818103600083015261117e8161105c565b9050919050565b6000602082019050818103600083015261119e8161109c565b9050919050565b60006020820190506111ba60008301846110dc565b92915050565b6000604051905081810181811067ffffffffffffffff821117156111e357600080fd5b8060405250919050565b600067ffffffffffffffff82111561120457600080fd5b601f19601f8301169050602081019050919050565b600081519050919050565b600081519050919050565b600082825260208201905092915050565b600061124b8261125e565b9050919050565b60008115159050919050565b600073ffffffffffffffffffffffffffffffffffffffff82169050919050565b6000819050919050565b82818337600083830152505050565b60005b838110156112b557808201518184015260208101905061129a565b838111156112c4576000848401525b50505050565b6000601f19601f8301169050919050565b6112e481611240565b81146112ef57600080fd5b50565b6112fb8161127e565b811461130657600080fd5b5056fea365627a7a7231582037bff1717cd07c9aada09bbcb72b9da795dfb28d1c4ac4b9575d984846270b266c6578706572696d656e74616cf564736f6c63430005100040",
  "source": "/*\r\n * Smart contract which is going to implement the ERC20\r\n * standard. It's going to be in charge of governing\r\n * the behavior of the cryptocurrency itself\r\n*/\r\npragma experimental ABIEncoderV2;\r\npragma solidity >=0.4.22 <0.9.0; //version of Solidity we are going to use\r\n\r\n\r\ncontract SKR {\r\n\r\n\t//total number of token\r\n\tuint256 public totalSupply; \r\n\r\n\t//associate the unique Ethereum address with the associated balance\r\n\tmapping(address => uint256) public balanceOf; \r\n\r\n\t//associate the amount which a spender is still allowed to withdraw from the owner's account\r\n\tmapping(address => mapping(address => uint)) public allowance;\r\n\r\n\t//name of the token\r\n\tstring public name = \"School Krone\";\r\n\r\n\t//symbol of the token\r\n\tstring public symbol = \"SKR\";\r\n\r\n\t//ipfs hash which will be saved inside the blockchain\r\n\tstring public ipfsHash;\r\n\r\n\t//owner of the contract\r\n\taddress public owner;\r\n\r\n\t//this mapping receive the teacher and return if he is allowed or not\r\n\tmapping(address => bool) allowedTeachers;\r\n\r\n\t//transfer event which is triggered when tokens are transferred\r\n\tevent Transfer(\r\n\t\taddress indexed _from,\r\n\t\taddress indexed _to,\r\n\t\tuint256 _value\r\n\t);\r\n\r\n\t//approve event which is triggered in the approve function\r\n\tevent Approval(\r\n\t\taddress indexed _owner,\r\n\t\taddress indexed _spender,\r\n\t\tuint256 _value\r\n\t);\r\n\r\n\r\n\t/*\r\n\t * constructor which:\r\n\t \t* allocates the initial supply\r\n\t \t* maps the key that is the address (msg.sender) with the value of the initial supply\r\n\t \t* set the owner as msg.sender\r\n\t \t* msg.sender corresponds to the account which deploys the contract\r\n\t \t\t*msg is a global variable that has several different values that we can read from\r\n\t \t\t*sender is the address of who call the function\r\n\t*/\r\n\tconstructor(uint256 _initialSupply) public {\r\n\t\tbalanceOf[msg.sender] = _initialSupply;\r\n\t\ttotalSupply = _initialSupply;\r\n\t\towner = msg.sender;\r\n\t}\r\n\r\n\t//function which allows to transfer a certain amount of token (_value) to a recipient (_to)\r\n\tfunction transfer(address _to, uint256 _value) public returns(bool success){\r\n\t\t//exception if the sender's account doesn't have enough tokens.\r\n\t\trequire(balanceOf[msg.sender] >= _value);\r\n\r\n\t\t//transfer the balance\r\n\t\tbalanceOf[msg.sender] -= _value;\r\n\t\tbalanceOf[_to] += _value;\r\n\r\n\t\t//trigger a transfer event\r\n\t\temit Transfer(msg.sender, _to, _value);\r\n\r\n\t\t//returns a boolean\r\n\t\treturn true;\r\n\t}\r\n\r\n\t//function which allows _spender to withdraw from the owner's account multiple times, up to the _value amount\r\n\tfunction approve (address _spender, uint256 _value) public returns (bool success){\r\n\t\t//set the allowance\r\n\t\tallowance[msg.sender][_spender] = _value;\r\n\r\n\t\t//trigger an approve event\r\n\t\temit Approval(msg.sender, _spender, _value);\r\n\r\n\t\treturn true;\r\n\t}\r\n\t\r\n\t//function which transfers _value amount of tokens from address _from to address _to, and MUST fire the Transfer event\r\n\tfunction transferFrom(address _from, address _to, uint256 _value) public returns (bool success) {\r\n\t\t//require _from has enough tokens\r\n\t\trequire(_value <= balanceOf[_from]);\r\n\r\n\t\t//require allowance is big enough so msg.sender cannot spend more than how much he's allowed to on behalf of _from account\r\n\t\trequire(_value <= allowance[_from][msg.sender]);\r\n\r\n\t\t//change the balance\r\n\t\tbalanceOf[_from] -= _value;\r\n\t\tbalanceOf[_to] += _value;\r\n\r\n\t\t//update the allowance\r\n\t\tallowance[_from][msg.sender] -= _value;\r\n\r\n\t\t//transfer event\r\n\t\temit Transfer(_from, _to, _value);\r\n\r\n\t\treturn true;\t\r\n\t}\r\n\r\n\t//_______________IPFS hash and student payment integration_______________//\r\n\r\n\t//takes a string x as input and stores its value to the ipfsHash variable\r\n\tfunction sendHash(string memory _x) public {\r\n\t\tipfsHash = _x;\r\n\t}\r\n\r\n\t/*\r\n\t * public function with mutability view, which means it can only view, not modify the Ethereum blockchain’s state and returns \r\n\t * the hash stored in the variable ipfsHash\r\n\t*/\r\n\tfunction getHash() public view returns (string memory) {\r\n\t\treturn ipfsHash;\r\n\t}\r\n\r\n\tmodifier _ownerOnly() {\r\n\t\trequire(msg.sender == owner, \"Ownable: caller is not the owner\"); \r\n      _;\r\n\t}\r\n\r\n\t//once used on a function then only the mentioned caller can call this function\r\n\tmodifier _allowedOnly(address _address) {\r\n      require((msg.sender == owner || allowedTeachers[_address]), \"You need to be allowed\");\r\n      _;\r\n  \t}\r\n\r\n  \tfunction addTeacher(address _teacherAddress) public _ownerOnly {\r\n  \t\tallowedTeachers[_teacherAddress] = true;\r\n  \t}\r\n\r\n  \tfunction verifyTeacher(address _teacherAddress) public view returns (bool) {\r\n  \t\tbool isTeacherAllowed = allowedTeachers[_teacherAddress];\r\n  \t\treturn isTeacherAllowed;\r\n  \t}\r\n\r\n\t//function which will manage the token payment\r\n\tfunction payStudent(address _studentAddress, string memory _hash, uint256 _amount) public _allowedOnly(msg.sender) {\r\n\t\ttransfer(_studentAddress, _amount);\r\n\t}\r\n}\r\n",
  "sourcePath": "C:\\Users\\matte\\Documenti\\skr\\contracts\\SKR.sol",
  "compiler": {
    "name": "solc",
    "version": "0.5.16+commit.9c3226ce.Emscripten.clang"
  },
  "schemaVersion": "3.4.4",
  "updatedAt": "2022-02-24T09:53:24.708Z",
  "devdoc": {
    "methods": {}
  },
  "userdoc": {
    "methods": {}
  }
}