{
  "contractName": "SKR",
  "abi": [
    {
      "inputs": [
        {
          "internalType": "uint256",
          "name": "_initialSupply",
          "type": "uint256"
        }
      ],
      "payable": false,
      "stateMutability": "nonpayable",
      "type": "constructor"
    },
    {
      "anonymous": false,
      "inputs": [
        {
          "indexed": true,
          "internalType": "address",
          "name": "_owner",
          "type": "address"
        },
        {
          "indexed": true,
          "internalType": "address",
          "name": "_spender",
          "type": "address"
        },
        {
          "indexed": false,
          "internalType": "uint256",
          "name": "_value",
          "type": "uint256"
        }
      ],
      "name": "Approval",
      "type": "event"
    },
    {
      "anonymous": false,
      "inputs": [
        {
          "indexed": true,
          "internalType": "address",
          "name": "_from",
          "type": "address"
        },
        {
          "indexed": true,
          "internalType": "address",
          "name": "_to",
          "type": "address"
        },
        {
          "indexed": false,
          "internalType": "uint256",
          "name": "_value",
          "type": "uint256"
        }
      ],
      "name": "Transfer",
      "type": "event"
    },
    {
      "constant": true,
      "inputs": [
        {
          "internalType": "address",
          "name": "",
          "type": "address"
        },
        {
          "internalType": "address",
          "name": "",
          "type": "address"
        }
      ],
      "name": "allowance",
      "outputs": [
        {
          "internalType": "uint256",
          "name": "",
          "type": "uint256"
        }
      ],
      "payable": false,
      "stateMutability": "view",
      "type": "function"
    },
    {
      "constant": true,
      "inputs": [
        {
          "internalType": "address",
          "name": "",
          "type": "address"
        }
      ],
      "name": "balanceOf",
      "outputs": [
        {
          "internalType": "uint256",
          "name": "",
          "type": "uint256"
        }
      ],
      "payable": false,
      "stateMutability": "view",
      "type": "function"
    },
    {
      "constant": true,
      "inputs": [],
      "name": "ipfsHash",
      "outputs": [
        {
          "internalType": "string",
          "name": "",
          "type": "string"
        }
      ],
      "payable": false,
      "stateMutability": "view",
      "type": "function"
    },
    {
      "constant": true,
      "inputs": [],
      "name": "name",
      "outputs": [
        {
          "internalType": "string",
          "name": "",
          "type": "string"
        }
      ],
      "payable": false,
      "stateMutability": "view",
      "type": "function"
    },
    {
      "constant": true,
      "inputs": [],
      "name": "symbol",
      "outputs": [
        {
          "internalType": "string",
          "name": "",
          "type": "string"
        }
      ],
      "payable": false,
      "stateMutability": "view",
      "type": "function"
    },
    {
      "constant": true,
      "inputs": [],
      "name": "totalSupply",
      "outputs": [
        {
          "internalType": "uint256",
          "name": "",
          "type": "uint256"
        }
      ],
      "payable": false,
      "stateMutability": "view",
      "type": "function"
    },
    {
      "constant": false,
      "inputs": [
        {
          "internalType": "address",
          "name": "_to",
          "type": "address"
        },
        {
          "internalType": "uint256",
          "name": "_value",
          "type": "uint256"
        }
      ],
      "name": "transfer",
      "outputs": [
        {
          "internalType": "bool",
          "name": "success",
          "type": "bool"
        }
      ],
      "payable": false,
      "stateMutability": "nonpayable",
      "type": "function"
    },
    {
      "constant": false,
      "inputs": [
        {
          "internalType": "address",
          "name": "_spender",
          "type": "address"
        },
        {
          "internalType": "uint256",
          "name": "_value",
          "type": "uint256"
        }
      ],
      "name": "approve",
      "outputs": [
        {
          "internalType": "bool",
          "name": "success",
          "type": "bool"
        }
      ],
      "payable": false,
      "stateMutability": "nonpayable",
      "type": "function"
    },
    {
      "constant": false,
      "inputs": [
        {
          "internalType": "address",
          "name": "_from",
          "type": "address"
        },
        {
          "internalType": "address",
          "name": "_to",
          "type": "address"
        },
        {
          "internalType": "uint256",
          "name": "_value",
          "type": "uint256"
        }
      ],
      "name": "transferFrom",
      "outputs": [
        {
          "internalType": "bool",
          "name": "success",
          "type": "bool"
        }
      ],
      "payable": false,
      "stateMutability": "nonpayable",
      "type": "function"
    },
    {
      "constant": false,
      "inputs": [
        {
          "internalType": "string",
          "name": "x",
          "type": "string"
        }
      ],
      "name": "sendHash",
      "outputs": [],
      "payable": false,
      "stateMutability": "nonpayable",
      "type": "function"
    },
    {
      "constant": true,
      "inputs": [],
      "name": "getHash",
      "outputs": [
        {
          "internalType": "string",
          "name": "",
          "type": "string"
        }
      ],
      "payable": false,
      "stateMutability": "view",
      "type": "function"
    }
  ],
  "bytecode": "0x60806040526040518060400160405280600c81526020017f5363686f6f6c204b726f6e6500000000000000000000000000000000000000008152506003908051906020019061004f92919061012f565b506040518060400160405280600381526020017f534b5200000000000000000000000000000000000000000000000000000000008152506004908051906020019061009b92919061012f565b503480156100a857600080fd5b506040516200100038038062001000833981810160405260208110156100cd57600080fd5b810190808051906020019092919050505080600160003373ffffffffffffffffffffffffffffffffffffffff1673ffffffffffffffffffffffffffffffffffffffff1681526020019081526020016000208190555080600081905550506101d4565b828054600181600116156101000203166002900490600052602060002090601f016020900481019282601f1061017057805160ff191683800117855561019e565b8280016001018555821561019e579182015b8281111561019d578251825591602001919060010190610182565b5b5090506101ab91906101af565b5090565b6101d191905b808211156101cd5760008160009055506001016101b5565b5090565b90565b610e1c80620001e46000396000f3fe608060405234801561001057600080fd5b50600436106100a95760003560e01c806395d89b411161007157806395d89b4114610293578063a9059cbb14610316578063c623674f1461037c578063d13319c4146103ff578063dd62ed3e14610482578063dfb29935146104fa576100a9565b806306fdde03146100ae578063095ea7b31461013157806318160ddd1461019757806323b872dd146101b557806370a082311461023b575b600080fd5b6100b66105b5565b6040518080602001828103825283818151815260200191508051906020019080838360005b838110156100f65780820151818401526020810190506100db565b50505050905090810190601f1680156101235780820380516001836020036101000a031916815260200191505b509250505060405180910390f35b61017d6004803603604081101561014757600080fd5b81019080803573ffffffffffffffffffffffffffffffffffffffff16906020019092919080359060200190929190505050610653565b604051808215151515815260200191505060405180910390f35b61019f610745565b6040518082815260200191505060405180910390f35b610221600480360360608110156101cb57600080fd5b81019080803573ffffffffffffffffffffffffffffffffffffffff169060200190929190803573ffffffffffffffffffffffffffffffffffffffff1690602001909291908035906020019092919050505061074b565b604051808215151515815260200191505060405180910390f35b61027d6004803603602081101561025157600080fd5b81019080803573ffffffffffffffffffffffffffffffffffffffff1690602001909291905050506109b6565b6040518082815260200191505060405180910390f35b61029b6109ce565b6040518080602001828103825283818151815260200191508051906020019080838360005b838110156102db5780820151818401526020810190506102c0565b50505050905090810190601f1680156103085780820380516001836020036101000a031916815260200191505b509250505060405180910390f35b6103626004803603604081101561032c57600080fd5b81019080803573ffffffffffffffffffffffffffffffffffffffff16906020019092919080359060200190929190505050610a6c565b604051808215151515815260200191505060405180910390f35b610384610bc3565b6040518080602001828103825283818151815260200191508051906020019080838360005b838110156103c45780820151818401526020810190506103a9565b50505050905090810190601f1680156103f15780820380516001836020036101000a031916815260200191505b509250505060405180910390f35b610407610c61565b6040518080602001828103825283818151815260200191508051906020019080838360005b8381101561044757808201518184015260208101905061042c565b50505050905090810190601f1680156104745780820380516001836020036101000a031916815260200191505b509250505060405180910390f35b6104e46004803603604081101561049857600080fd5b81019080803573ffffffffffffffffffffffffffffffffffffffff169060200190929190803573ffffffffffffffffffffffffffffffffffffffff169060200190929190505050610d03565b6040518082815260200191505060405180910390f35b6105b36004803603602081101561051057600080fd5b810190808035906020019064010000000081111561052d57600080fd5b82018360208201111561053f57600080fd5b8035906020019184600183028401116401000000008311171561056157600080fd5b91908080601f016020809104026020016040519081016040528093929190818152602001838380828437600081840152601f19601f820116905080830192505050505050509192919290505050610d28565b005b60038054600181600116156101000203166002900480601f01602080910402602001604051908101604052809291908181526020018280546001816001161561010002031660029004801561064b5780601f106106205761010080835404028352916020019161064b565b820191906000526020600020905b81548152906001019060200180831161062e57829003601f168201915b505050505081565b600081600260003373ffffffffffffffffffffffffffffffffffffffff1673ffffffffffffffffffffffffffffffffffffffff16815260200190815260200160002060008573ffffffffffffffffffffffffffffffffffffffff1673ffffffffffffffffffffffffffffffffffffffff168152602001908152602001600020819055508273ffffffffffffffffffffffffffffffffffffffff163373ffffffffffffffffffffffffffffffffffffffff167f8c5be1e5ebec7d5bd14f71427d1e84f3dd0314c0f7b2291e5b200ac8c7c3b925846040518082815260200191505060405180910390a36001905092915050565b60005481565b6000600160008573ffffffffffffffffffffffffffffffffffffffff1673ffffffffffffffffffffffffffffffffffffffff1681526020019081526020016000205482111561079957600080fd5b600260008573ffffffffffffffffffffffffffffffffffffffff1673ffffffffffffffffffffffffffffffffffffffff16815260200190815260200160002060003373ffffffffffffffffffffffffffffffffffffffff1673ffffffffffffffffffffffffffffffffffffffff1681526020019081526020016000205482111561082257600080fd5b81600160008673ffffffffffffffffffffffffffffffffffffffff1673ffffffffffffffffffffffffffffffffffffffff1681526020019081526020016000206000828254039250508190555081600160008573ffffffffffffffffffffffffffffffffffffffff1673ffffffffffffffffffffffffffffffffffffffff1681526020019081526020016000206000828254019250508190555081600260008673ffffffffffffffffffffffffffffffffffffffff1673ffffffffffffffffffffffffffffffffffffffff16815260200190815260200160002060003373ffffffffffffffffffffffffffffffffffffffff1673ffffffffffffffffffffffffffffffffffffffff168152602001908152602001600020600082825403925050819055508273ffffffffffffffffffffffffffffffffffffffff168473ffffffffffffffffffffffffffffffffffffffff167fddf252ad1be2c89b69c2b068fc378daa952ba7f163c4a11628f55a4df523b3ef846040518082815260200191505060405180910390a3600190509392505050565b60016020528060005260406000206000915090505481565b60048054600181600116156101000203166002900480601f016020809104026020016040519081016040528092919081815260200182805460018160011615610100020316600290048015610a645780601f10610a3957610100808354040283529160200191610a64565b820191906000526020600020905b815481529060010190602001808311610a4757829003601f168201915b505050505081565b600081600160003373ffffffffffffffffffffffffffffffffffffffff1673ffffffffffffffffffffffffffffffffffffffff168152602001908152602001600020541015610aba57600080fd5b81600160003373ffffffffffffffffffffffffffffffffffffffff1673ffffffffffffffffffffffffffffffffffffffff1681526020019081526020016000206000828254039250508190555081600160008573ffffffffffffffffffffffffffffffffffffffff1673ffffffffffffffffffffffffffffffffffffffff168152602001908152602001600020600082825401925050819055508273ffffffffffffffffffffffffffffffffffffffff163373ffffffffffffffffffffffffffffffffffffffff167fddf252ad1be2c89b69c2b068fc378daa952ba7f163c4a11628f55a4df523b3ef846040518082815260200191505060405180910390a36001905092915050565b60058054600181600116156101000203166002900480601f016020809104026020016040519081016040528092919081815260200182805460018160011615610100020316600290048015610c595780601f10610c2e57610100808354040283529160200191610c59565b820191906000526020600020905b815481529060010190602001808311610c3c57829003601f168201915b505050505081565b606060058054600181600116156101000203166002900480601f016020809104026020016040519081016040528092919081815260200182805460018160011615610100020316600290048015610cf95780601f10610cce57610100808354040283529160200191610cf9565b820191906000526020600020905b815481529060010190602001808311610cdc57829003601f168201915b5050505050905090565b6002602052816000526040600020602052806000526040600020600091509150505481565b8060059080519060200190610d3e929190610d42565b5050565b828054600181600116156101000203166002900490600052602060002090601f016020900481019282601f10610d8357805160ff1916838001178555610db1565b82800160010185558215610db1579182015b82811115610db0578251825591602001919060010190610d95565b5b509050610dbe9190610dc2565b5090565b610de491905b80821115610de0576000816000905550600101610dc8565b5090565b9056fea265627a7a7231582017555eeac2d80284397d086c62516f9c7c33d435e7f3454ca00033d45d5cdcc564736f6c63430005100032",
  "source": "/**\r\n * Smart contract which is going to implement the ERC20\r\n * standard. It's going to be in charge of governing\r\n * the behavior of the cryptocurrency itself\r\n*/\r\n\r\npragma solidity >=0.4.22 <0.9.0; //version of Solidity we are going to use\r\n\r\ncontract SKR {\r\n\r\n\t//total number of token\r\n\tuint256 public totalSupply; \r\n\r\n\t//associate the unique Ethereum address with the associated balance\r\n\tmapping(address => uint256) public balanceOf; \r\n\r\n\t//associate the amount which a spender is still allowed to withdraw from the owner's account\r\n\tmapping(address => mapping(address => uint)) public allowance;\r\n\r\n\t//name of the token\r\n\tstring public name = \"School Krone\";\r\n\r\n\t//symbol of the token\r\n\tstring public symbol = \"SKR\";\r\n\r\n\t//ipfs hash which will be saved inside the blockchain\r\n\tstring public ipfsHash;\r\n\r\n\t//transfer event which is triggered when tokens are transferred\r\n\tevent Transfer(\r\n\t\taddress indexed _from,\r\n\t\taddress indexed _to,\r\n\t\tuint256 _value\r\n\t);\r\n\r\n\t//approve event which is triggered in the approve function\r\n\tevent Approval(\r\n\t\taddress indexed _owner,\r\n\t\taddress indexed _spender,\r\n\t\tuint256 _value\r\n\t);\r\n\r\n\r\n\t/**\r\n\t * Constructor which:\r\n\t \t* allocates the initial supply\r\n\t \t* maps the key that is the address (msg.sender) with the value of the initial supply\r\n\t \t* msg.sender corresponds to the account which deploys the contract\r\n\t \t\t*msg is a global variable that has several different values that we can read from\r\n\t \t\t*sender is the address of who call the function\r\n\t*/\r\n\tconstructor(uint256 _initialSupply) public {\r\n\t\tbalanceOf[msg.sender] = _initialSupply;\r\n\t\ttotalSupply = _initialSupply; \r\n\t}\r\n\r\n\t/**\r\n\t * Function which allows to transfer a certain amount of token (_value) to a recipient (_to)\r\n\t*/\r\n\tfunction transfer(address _to, uint256 _value) public returns(bool success){\r\n\t\t//exception if the sender's account doesn't have enough tokens.\r\n\t\trequire(balanceOf[msg.sender] >= _value);\r\n\r\n\t\t//transfer the balance\r\n\t\tbalanceOf[msg.sender] -= _value;\r\n\t\tbalanceOf[_to] += _value;\r\n\r\n\t\t//trigger a transfer event\r\n\t\temit Transfer(msg.sender, _to, _value);\r\n\r\n\t\t//returns a boolean\r\n\t\treturn true;\r\n\t}\r\n\r\n\t/**\r\n\t * Function which allows _spender to withdraw from the owner's account multiple times, up to the _value amount\r\n\t*/\r\n\tfunction approve (address _spender, uint256 _value) public returns (bool success){\r\n\t\t//set the allowance\r\n\t\tallowance[msg.sender][_spender] = _value;\r\n\r\n\t\t//trigger an approve event\r\n\t\temit Approval(msg.sender, _spender, _value);\r\n\r\n\t\treturn true;\r\n\t}\r\n\t/**\r\n\t * Function which transfers _value amount of tokens from address _from to address _to, and MUST fire the Transfer event\r\n\t*/\r\n\tfunction transferFrom(address _from, address _to, uint256 _value) public returns (bool success) {\r\n\t\t//require _from has enough tokens\r\n\t\trequire(_value <= balanceOf[_from]);\r\n\r\n\t\t//require allowance is big enough so msg.sender cannot spend more than how much he's allowed to on behalf of _from account\r\n\t\trequire(_value <= allowance[_from][msg.sender]);\r\n\r\n\t\t//change the balance\r\n\t\tbalanceOf[_from] -= _value;\r\n\t\tbalanceOf[_to] += _value;\r\n\r\n\t\t//update the allowance\r\n\t\tallowance[_from][msg.sender] -= _value;\r\n\r\n\t\t//transfer event\r\n\t\temit Transfer(_from, _to, _value);\r\n\r\n\t\treturn true;\t\r\n\t}\r\n\r\n\t//_______________IPFS hash integration_______________//\r\n\r\n\t//takes a string x as input and stores its value to the ipfsHash variable\r\n\tfunction sendHash(string memory x) public {\r\n\t\tipfsHash = x;\r\n\t}\r\n\r\n\t/*public function with mutability view, which means it can only view, not modify the Ethereum blockchain’s state and returns \r\n\tthe hash stored in the variable ipfsHash.*/\r\n\tfunction getHash() public view returns (string memory) {\r\n\t\treturn ipfsHash;\r\n\t}\r\n\r\n}\r\n",
  "sourcePath": "C:\\Users\\matte\\Documents\\SKR\\contracts\\SKR.sol",
  "compiler": {
    "name": "solc",
    "version": "0.5.16+commit.9c3226ce.Emscripten.clang"
  },
  "schemaVersion": "3.4.4",
  "updatedAt": "2022-01-03T10:27:27.039Z",
  "networkType": "ethereum",
  "devdoc": {
    "methods": {}
  },
  "userdoc": {
    "methods": {
      "approve(address,uint256)": {
        "notice": "Function which allows _spender to withdraw from the owner's account multiple times, up to the _value amount"
      },
      "constructor": "Constructor which: allocates the initial supply maps the key that is the address (msg.sender) with the value of the initial supply msg.sender corresponds to the account which deploys the contract sg is a global variable that has several different values that we can read from ender is the address of who call the function",
      "transfer(address,uint256)": {
        "notice": "Function which allows to transfer a certain amount of token (_value) to a recipient (_to)"
      },
      "transferFrom(address,address,uint256)": {
        "notice": "Function which transfers _value amount of tokens from address _from to address _to, and MUST fire the Transfer event"
      }
    }
  }
}