{
  "contractName": "SKR",
  "abi": [
    {
      "inputs": [
        {
          "internalType": "uint256",
          "name": "_initialSupply",
          "type": "uint256"
        }
      ],
      "payable": false,
      "stateMutability": "nonpayable",
      "type": "constructor"
    },
    {
      "anonymous": false,
      "inputs": [
        {
          "indexed": true,
          "internalType": "address",
          "name": "_owner",
          "type": "address"
        },
        {
          "indexed": true,
          "internalType": "address",
          "name": "_spender",
          "type": "address"
        },
        {
          "indexed": false,
          "internalType": "uint256",
          "name": "_value",
          "type": "uint256"
        }
      ],
      "name": "Approval",
      "type": "event"
    },
    {
      "anonymous": false,
      "inputs": [
        {
          "indexed": true,
          "internalType": "address",
          "name": "_from",
          "type": "address"
        },
        {
          "indexed": true,
          "internalType": "address",
          "name": "_to",
          "type": "address"
        },
        {
          "indexed": false,
          "internalType": "uint256",
          "name": "_value",
          "type": "uint256"
        }
      ],
      "name": "Transfer",
      "type": "event"
    },
    {
      "constant": true,
      "inputs": [
        {
          "internalType": "address",
          "name": "",
          "type": "address"
        },
        {
          "internalType": "address",
          "name": "",
          "type": "address"
        }
      ],
      "name": "allowance",
      "outputs": [
        {
          "internalType": "uint256",
          "name": "",
          "type": "uint256"
        }
      ],
      "payable": false,
      "stateMutability": "view",
      "type": "function"
    },
    {
      "constant": true,
      "inputs": [
        {
          "internalType": "address",
          "name": "",
          "type": "address"
        }
      ],
      "name": "balanceOf",
      "outputs": [
        {
          "internalType": "uint256",
          "name": "",
          "type": "uint256"
        }
      ],
      "payable": false,
      "stateMutability": "view",
      "type": "function"
    },
    {
      "constant": true,
      "inputs": [],
      "name": "ipfsHash",
      "outputs": [
        {
          "internalType": "string",
          "name": "",
          "type": "string"
        }
      ],
      "payable": false,
      "stateMutability": "view",
      "type": "function"
    },
    {
      "constant": true,
      "inputs": [],
      "name": "name",
      "outputs": [
        {
          "internalType": "string",
          "name": "",
          "type": "string"
        }
      ],
      "payable": false,
      "stateMutability": "view",
      "type": "function"
    },
    {
      "constant": true,
      "inputs": [],
      "name": "symbol",
      "outputs": [
        {
          "internalType": "string",
          "name": "",
          "type": "string"
        }
      ],
      "payable": false,
      "stateMutability": "view",
      "type": "function"
    },
    {
      "constant": true,
      "inputs": [
        {
          "internalType": "uint256",
          "name": "",
          "type": "uint256"
        }
      ],
      "name": "teachers",
      "outputs": [
        {
          "internalType": "string",
          "name": "name",
          "type": "string"
        },
        {
          "internalType": "address",
          "name": "teacherAddress",
          "type": "address"
        }
      ],
      "payable": false,
      "stateMutability": "view",
      "type": "function"
    },
    {
      "constant": true,
      "inputs": [],
      "name": "totalSupply",
      "outputs": [
        {
          "internalType": "uint256",
          "name": "",
          "type": "uint256"
        }
      ],
      "payable": false,
      "stateMutability": "view",
      "type": "function"
    },
    {
      "constant": false,
      "inputs": [
        {
          "internalType": "address",
          "name": "_to",
          "type": "address"
        },
        {
          "internalType": "uint256",
          "name": "_value",
          "type": "uint256"
        }
      ],
      "name": "transfer",
      "outputs": [
        {
          "internalType": "bool",
          "name": "success",
          "type": "bool"
        }
      ],
      "payable": false,
      "stateMutability": "nonpayable",
      "type": "function"
    },
    {
      "constant": false,
      "inputs": [
        {
          "internalType": "address",
          "name": "_spender",
          "type": "address"
        },
        {
          "internalType": "uint256",
          "name": "_value",
          "type": "uint256"
        }
      ],
      "name": "approve",
      "outputs": [
        {
          "internalType": "bool",
          "name": "success",
          "type": "bool"
        }
      ],
      "payable": false,
      "stateMutability": "nonpayable",
      "type": "function"
    },
    {
      "constant": false,
      "inputs": [
        {
          "internalType": "address",
          "name": "_from",
          "type": "address"
        },
        {
          "internalType": "address",
          "name": "_to",
          "type": "address"
        },
        {
          "internalType": "uint256",
          "name": "_value",
          "type": "uint256"
        }
      ],
      "name": "transferFrom",
      "outputs": [
        {
          "internalType": "bool",
          "name": "success",
          "type": "bool"
        }
      ],
      "payable": false,
      "stateMutability": "nonpayable",
      "type": "function"
    },
    {
      "constant": false,
      "inputs": [
        {
          "internalType": "string",
          "name": "_x",
          "type": "string"
        }
      ],
      "name": "sendHash",
      "outputs": [],
      "payable": false,
      "stateMutability": "nonpayable",
      "type": "function"
    },
    {
      "constant": true,
      "inputs": [],
      "name": "getHash",
      "outputs": [
        {
          "internalType": "string",
          "name": "",
          "type": "string"
        }
      ],
      "payable": false,
      "stateMutability": "view",
      "type": "function"
    },
    {
      "constant": false,
      "inputs": [
        {
          "internalType": "string",
          "name": "_teacherName",
          "type": "string"
        },
        {
          "internalType": "address",
          "name": "_teacherAddress",
          "type": "address"
        }
      ],
      "name": "addTeacher",
      "outputs": [],
      "payable": false,
      "stateMutability": "nonpayable",
      "type": "function"
    },
    {
      "constant": true,
      "inputs": [
        {
          "components": [
            {
              "internalType": "string",
              "name": "name",
              "type": "string"
            },
            {
              "internalType": "address",
              "name": "teacherAddress",
              "type": "address"
            }
          ],
          "internalType": "struct SKR.Teacher",
          "name": "_teacher",
          "type": "tuple"
        }
      ],
      "name": "getTeacherName",
      "outputs": [
        {
          "internalType": "string",
          "name": "",
          "type": "string"
        }
      ],
      "payable": false,
      "stateMutability": "pure",
      "type": "function"
    },
    {
      "constant": true,
      "inputs": [
        {
          "components": [
            {
              "internalType": "string",
              "name": "name",
              "type": "string"
            },
            {
              "internalType": "address",
              "name": "teacherAddress",
              "type": "address"
            }
          ],
          "internalType": "struct SKR.Teacher",
          "name": "_teacher",
          "type": "tuple"
        }
      ],
      "name": "getTeacherAddress",
      "outputs": [
        {
          "internalType": "address",
          "name": "",
          "type": "address"
        }
      ],
      "payable": false,
      "stateMutability": "pure",
      "type": "function"
    },
    {
      "constant": true,
      "inputs": [
        {
          "internalType": "address",
          "name": "_teacherAddress",
          "type": "address"
        }
      ],
      "name": "isAnAllowedTeacher",
      "outputs": [
        {
          "internalType": "bool",
          "name": "",
          "type": "bool"
        }
      ],
      "payable": false,
      "stateMutability": "view",
      "type": "function"
    },
    {
      "constant": false,
      "inputs": [
        {
          "internalType": "address",
          "name": "_studentAddress",
          "type": "address"
        },
        {
          "internalType": "string",
          "name": "_hash",
          "type": "string"
        },
        {
          "internalType": "uint256",
          "name": "_amount",
          "type": "uint256"
        }
      ],
      "name": "payStudent",
      "outputs": [],
      "payable": false,
      "stateMutability": "nonpayable",
      "type": "function"
    }
  ],
  "bytecode": "0x60806040526040518060400160405280600c81526020017f5363686f6f6c204b726f6e650000000000000000000000000000000000000000815250600390805190602001906200005192919062000166565b506040518060400160405280600381526020017f534b520000000000000000000000000000000000000000000000000000000000815250600490805190602001906200009f92919062000166565b50348015620000ad57600080fd5b5060405162001a2138038062001a218339818101604052620000d391908101906200022c565b80600160003373ffffffffffffffffffffffffffffffffffffffff1673ffffffffffffffffffffffffffffffffffffffff168152602001908152602001600020819055508060008190555033600660006101000a81548173ffffffffffffffffffffffffffffffffffffffff021916908373ffffffffffffffffffffffffffffffffffffffff160217905550506200027c565b828054600181600116156101000203166002900490600052602060002090601f016020900481019282601f10620001a957805160ff1916838001178555620001da565b82800160010185558215620001da579182015b82811115620001d9578251825591602001919060010190620001bc565b5b509050620001e99190620001ed565b5090565b6200021291905b808211156200020e576000816000905550600101620001f4565b5090565b90565b600081519050620002268162000262565b92915050565b6000602082840312156200023f57600080fd5b60006200024f8482850162000215565b91505092915050565b6000819050919050565b6200026d8162000258565b81146200027957600080fd5b50565b611795806200028c6000396000f3fe608060405234801561001057600080fd5b506004361061010b5760003560e01c806370a08231116100a2578063c623674f11610071578063c623674f14610307578063d13319c414610325578063dd62ed3e14610343578063dfb2993514610373578063f893e1531461038f5761010b565b806370a082311461026d57806395d89b411461029d578063a36042db146102bb578063a9059cbb146102d75761010b565b806323b872dd116100de57806323b872dd146101ac57806334ac0b40146101dc5780636648672a1461020d578063708886f01461023d5761010b565b806306fdde0314610110578063095ea7b31461012e57806318160ddd1461015e578063192545b21461017c575b600080fd5b6101186103ab565b604051610125919061154e565b60405180910390f35b6101486004803603610143919081019061133e565b610449565b6040516101559190611533565b60405180910390f35b61016661053b565b60405161017391906115c2565b60405180910390f35b6101966004803603610191919081019061140f565b610541565b6040516101a39190611570565b60405180910390f35b6101c660048036036101c19190810190611288565b61054f565b6040516101d39190611533565b60405180910390f35b6101f660048036036101f19190810190611450565b6107ba565b604051610204929190611592565b60405180910390f35b6102276004803603610222919081019061140f565b6108a3565b6040516102349190611518565b60405180910390f35b61025760048036036102529190810190611223565b6108b1565b6040516102649190611533565b60405180910390f35b61028760048036036102829190810190611223565b610a44565b60405161029491906115c2565b60405180910390f35b6102a5610a5c565b6040516102b2919061154e565b60405180910390f35b6102d560048036036102d091908101906113bb565b610afa565b005b6102f160048036036102ec919081019061133e565b610c17565b6040516102fe9190611533565b60405180910390f35b61030f610d6e565b60405161031c919061154e565b60405180910390f35b61032d610e0c565b60405161033a9190611570565b60405180910390f35b61035d6004803603610358919081019061124c565b610eae565b60405161036a91906115c2565b60405180910390f35b61038d6004803603610388919081019061137a565b610ed3565b005b6103a960048036036103a491908101906112d7565b610eed565b005b60038054600181600116156101000203166002900480601f0160208091040260200160405190810160405280929190818152602001828054600181600116156101000203166002900480156104415780601f1061041657610100808354040283529160200191610441565b820191906000526020600020905b81548152906001019060200180831161042457829003601f168201915b505050505081565b600081600260003373ffffffffffffffffffffffffffffffffffffffff1673ffffffffffffffffffffffffffffffffffffffff16815260200190815260200160002060008573ffffffffffffffffffffffffffffffffffffffff1673ffffffffffffffffffffffffffffffffffffffff168152602001908152602001600020819055508273ffffffffffffffffffffffffffffffffffffffff163373ffffffffffffffffffffffffffffffffffffffff167f8c5be1e5ebec7d5bd14f71427d1e84f3dd0314c0f7b2291e5b200ac8c7c3b9258460405161052991906115c2565b60405180910390a36001905092915050565b60005481565b606081600001519050919050565b6000600160008573ffffffffffffffffffffffffffffffffffffffff1673ffffffffffffffffffffffffffffffffffffffff1681526020019081526020016000205482111561059d57600080fd5b600260008573ffffffffffffffffffffffffffffffffffffffff1673ffffffffffffffffffffffffffffffffffffffff16815260200190815260200160002060003373ffffffffffffffffffffffffffffffffffffffff1673ffffffffffffffffffffffffffffffffffffffff1681526020019081526020016000205482111561062657600080fd5b81600160008673ffffffffffffffffffffffffffffffffffffffff1673ffffffffffffffffffffffffffffffffffffffff1681526020019081526020016000206000828254039250508190555081600160008573ffffffffffffffffffffffffffffffffffffffff1673ffffffffffffffffffffffffffffffffffffffff1681526020019081526020016000206000828254019250508190555081600260008673ffffffffffffffffffffffffffffffffffffffff1673ffffffffffffffffffffffffffffffffffffffff16815260200190815260200160002060003373ffffffffffffffffffffffffffffffffffffffff1673ffffffffffffffffffffffffffffffffffffffff168152602001908152602001600020600082825403925050819055508273ffffffffffffffffffffffffffffffffffffffff168473ffffffffffffffffffffffffffffffffffffffff167fddf252ad1be2c89b69c2b068fc378daa952ba7f163c4a11628f55a4df523b3ef846040516107a791906115c2565b60405180910390a3600190509392505050565b600781815481106107c757fe5b9060005260206000209060020201600091509050806000018054600181600116156101000203166002900480601f0160208091040260200160405190810160405280929190818152602001828054600181600116156101000203166002900480156108735780601f1061084857610100808354040283529160200191610873565b820191906000526020600020905b81548152906001019060200180831161085657829003601f168201915b5050505050908060010160009054906101000a900473ffffffffffffffffffffffffffffffffffffffff16905082565b600081602001519050919050565b60008060008090505b600780549050811015610a3a576109ed600782815481106108d757fe5b9060005260206000209060020201604051806040016040529081600082018054600181600116156101000203166002900480601f0160208091040260200160405190810160405280929190818152602001828054600181600116156101000203166002900480156109895780601f1061095e57610100808354040283529160200191610989565b820191906000526020600020905b81548152906001019060200180831161096c57829003601f168201915b505050505081526020016001820160009054906101000a900473ffffffffffffffffffffffffffffffffffffffff1673ffffffffffffffffffffffffffffffffffffffff1673ffffffffffffffffffffffffffffffffffffffff16815250506108a3565b73ffffffffffffffffffffffffffffffffffffffff168473ffffffffffffffffffffffffffffffffffffffff161415610a295760019150610a3a565b6000915080806001019150506108ba565b5080915050919050565b60016020528060005260406000206000915090505481565b60048054600181600116156101000203166002900480601f016020809104026020016040519081016040528092919081815260200182805460018160011615610100020316600290048015610af25780601f10610ac757610100808354040283529160200191610af2565b820191906000526020600020905b815481529060010190602001808311610ad557829003601f168201915b505050505081565b600660009054906101000a900473ffffffffffffffffffffffffffffffffffffffff1673ffffffffffffffffffffffffffffffffffffffff163373ffffffffffffffffffffffffffffffffffffffff1614610b5457600080fd5b600760405180604001604052808481526020018373ffffffffffffffffffffffffffffffffffffffff16815250908060018154018082558091505090600182039060005260206000209060020201600090919290919091506000820151816000019080519060200190610bc8929190610fc8565b5060208201518160010160006101000a81548173ffffffffffffffffffffffffffffffffffffffff021916908373ffffffffffffffffffffffffffffffffffffffff1602179055505050505050565b600081600160003373ffffffffffffffffffffffffffffffffffffffff1673ffffffffffffffffffffffffffffffffffffffff168152602001908152602001600020541015610c6557600080fd5b81600160003373ffffffffffffffffffffffffffffffffffffffff1673ffffffffffffffffffffffffffffffffffffffff1681526020019081526020016000206000828254039250508190555081600160008573ffffffffffffffffffffffffffffffffffffffff1673ffffffffffffffffffffffffffffffffffffffff168152602001908152602001600020600082825401925050819055508273ffffffffffffffffffffffffffffffffffffffff163373ffffffffffffffffffffffffffffffffffffffff167fddf252ad1be2c89b69c2b068fc378daa952ba7f163c4a11628f55a4df523b3ef84604051610d5c91906115c2565b60405180910390a36001905092915050565b60058054600181600116156101000203166002900480601f016020809104026020016040519081016040528092919081815260200182805460018160011615610100020316600290048015610e045780601f10610dd957610100808354040283529160200191610e04565b820191906000526020600020905b815481529060010190602001808311610de757829003601f168201915b505050505081565b606060058054600181600116156101000203166002900480601f016020809104026020016040519081016040528092919081815260200182805460018160011615610100020316600290048015610ea45780601f10610e7957610100808354040283529160200191610ea4565b820191906000526020600020905b815481529060010190602001808311610e8757829003601f168201915b5050505050905090565b6002602052816000526040600020602052806000526040600020600091509150505481565b8060059080519060200190610ee9929190611048565b5050565b600660009054906101000a900473ffffffffffffffffffffffffffffffffffffffff1673ffffffffffffffffffffffffffffffffffffffff163373ffffffffffffffffffffffffffffffffffffffff161480610faf5750600660009054906101000a900473ffffffffffffffffffffffffffffffffffffffff1673ffffffffffffffffffffffffffffffffffffffff163373ffffffffffffffffffffffffffffffffffffffff1614158015610fae575060011515610faa336108b1565b1515145b5b610fb857600080fd5b610fc28382610c17565b50505050565b828054600181600116156101000203166002900490600052602060002090601f016020900481019282601f1061100957805160ff1916838001178555611037565b82800160010185558215611037579182015b8281111561103657825182559160200191906001019061101b565b5b50905061104491906110c8565b5090565b828054600181600116156101000203166002900490600052602060002090601f016020900481019282601f1061108957805160ff19168380011785556110b7565b828001600101855582156110b7579182015b828111156110b657825182559160200191906001019061109b565b5b5090506110c491906110c8565b5090565b6110ea91905b808211156110e65760008160009055506001016110ce565b5090565b90565b6000813590506110fc81611724565b92915050565b600082601f83011261111357600080fd5b81356111266111218261160a565b6115dd565b9150808252602083016020830185838301111561114257600080fd5b61114d8382846116d1565b50505092915050565b600082601f83011261116757600080fd5b813561117a61117582611636565b6115dd565b9150808252602083016020830185838301111561119657600080fd5b6111a18382846116d1565b50505092915050565b6000604082840312156111bc57600080fd5b6111c660406115dd565b9050600082013567ffffffffffffffff8111156111e257600080fd5b6111ee84828501611102565b6000830152506020611202848285016110ed565b60208301525092915050565b60008135905061121d8161173b565b92915050565b60006020828403121561123557600080fd5b6000611243848285016110ed565b91505092915050565b6000806040838503121561125f57600080fd5b600061126d858286016110ed565b925050602061127e858286016110ed565b9150509250929050565b60008060006060848603121561129d57600080fd5b60006112ab868287016110ed565b93505060206112bc868287016110ed565b92505060406112cd8682870161120e565b9150509250925092565b6000806000606084860312156112ec57600080fd5b60006112fa868287016110ed565b935050602084013567ffffffffffffffff81111561131757600080fd5b61132386828701611156565b92505060406113348682870161120e565b9150509250925092565b6000806040838503121561135157600080fd5b600061135f858286016110ed565b92505060206113708582860161120e565b9150509250929050565b60006020828403121561138c57600080fd5b600082013567ffffffffffffffff8111156113a657600080fd5b6113b284828501611156565b91505092915050565b600080604083850312156113ce57600080fd5b600083013567ffffffffffffffff8111156113e857600080fd5b6113f485828601611156565b9250506020611405858286016110ed565b9150509250929050565b60006020828403121561142157600080fd5b600082013567ffffffffffffffff81111561143b57600080fd5b611447848285016111aa565b91505092915050565b60006020828403121561146257600080fd5b60006114708482850161120e565b91505092915050565b61148281611689565b82525050565b6114918161169b565b82525050565b60006114a28261166d565b6114ac8185611678565b93506114bc8185602086016116e0565b6114c581611713565b840191505092915050565b60006114db82611662565b6114e58185611678565b93506114f58185602086016116e0565b6114fe81611713565b840191505092915050565b611512816116c7565b82525050565b600060208201905061152d6000830184611479565b92915050565b60006020820190506115486000830184611488565b92915050565b6000602082019050818103600083015261156881846114d0565b905092915050565b6000602082019050818103600083015261158a8184611497565b905092915050565b600060408201905081810360008301526115ac81856114d0565b90506115bb6020830184611479565b9392505050565b60006020820190506115d76000830184611509565b92915050565b6000604051905081810181811067ffffffffffffffff8211171561160057600080fd5b8060405250919050565b600067ffffffffffffffff82111561162157600080fd5b601f19601f8301169050602081019050919050565b600067ffffffffffffffff82111561164d57600080fd5b601f19601f8301169050602081019050919050565b600081519050919050565b600081519050919050565b600082825260208201905092915050565b6000611694826116a7565b9050919050565b60008115159050919050565b600073ffffffffffffffffffffffffffffffffffffffff82169050919050565b6000819050919050565b82818337600083830152505050565b60005b838110156116fe5780820151818401526020810190506116e3565b8381111561170d576000848401525b50505050565b6000601f19601f8301169050919050565b61172d81611689565b811461173857600080fd5b50565b611744816116c7565b811461174f57600080fd5b5056fea365627a7a723158201b14c674e010f540719f99a16d115860554d5f7cb7a30b1f685a403e2adaf8876c6578706572696d656e74616cf564736f6c63430005100040",
  "source": "/*\r\n * Smart contract which is going to implement the ERC20\r\n * standard. It's going to be in charge of governing\r\n * the behavior of the cryptocurrency itself\r\n*/\r\npragma experimental ABIEncoderV2;\r\npragma solidity >=0.4.22 <0.9.0; //version of Solidity we are going to use\r\n\r\n\r\ncontract SKR {\r\n\r\n\t//total number of token\r\n\tuint256 public totalSupply; \r\n\r\n\t//associate the unique Ethereum address with the associated balance\r\n\tmapping(address => uint256) public balanceOf; \r\n\r\n\t//associate the amount which a spender is still allowed to withdraw from the owner's account\r\n\tmapping(address => mapping(address => uint)) public allowance;\r\n\r\n\t//name of the token\r\n\tstring public name = \"School Krone\";\r\n\r\n\t//symbol of the token\r\n\tstring public symbol = \"SKR\";\r\n\r\n\t//ipfs hash which will be saved inside the blockchain\r\n\tstring public ipfsHash;\r\n\r\n\t//owner of the contract\r\n\taddress owner;\r\n\r\n\t//struct which represents the teacher information\r\n\tstruct Teacher {\r\n\t\tstring name;\r\n\t\taddress teacherAddress;\r\n\t}\r\n\r\n\t//array of teachers allowed to send tokens to the students\r\n\tTeacher[] public teachers;\r\n\r\n\t//transfer event which is triggered when tokens are transferred\r\n\tevent Transfer(\r\n\t\taddress indexed _from,\r\n\t\taddress indexed _to,\r\n\t\tuint256 _value\r\n\t);\r\n\r\n\t//approve event which is triggered in the approve function\r\n\tevent Approval(\r\n\t\taddress indexed _owner,\r\n\t\taddress indexed _spender,\r\n\t\tuint256 _value\r\n\t);\r\n\r\n\r\n\t/*\r\n\t * constructor which:\r\n\t \t* allocates the initial supply\r\n\t \t* maps the key that is the address (msg.sender) with the value of the initial supply\r\n\t \t* set the owner as msg.sender\r\n\t \t* msg.sender corresponds to the account which deploys the contract\r\n\t \t\t*msg is a global variable that has several different values that we can read from\r\n\t \t\t*sender is the address of who call the function\r\n\t*/\r\n\tconstructor(uint256 _initialSupply) public {\r\n\t\tbalanceOf[msg.sender] = _initialSupply;\r\n\t\ttotalSupply = _initialSupply;\r\n\t\towner = msg.sender;\r\n\t}\r\n\r\n\t//function which allows to transfer a certain amount of token (_value) to a recipient (_to)\r\n\tfunction transfer(address _to, uint256 _value) public returns(bool success){\r\n\t\t//exception if the sender's account doesn't have enough tokens.\r\n\t\trequire(balanceOf[msg.sender] >= _value);\r\n\r\n\t\t//transfer the balance\r\n\t\tbalanceOf[msg.sender] -= _value;\r\n\t\tbalanceOf[_to] += _value;\r\n\r\n\t\t//trigger a transfer event\r\n\t\temit Transfer(msg.sender, _to, _value);\r\n\r\n\t\t//returns a boolean\r\n\t\treturn true;\r\n\t}\r\n\r\n\t//function which allows _spender to withdraw from the owner's account multiple times, up to the _value amount\r\n\tfunction approve (address _spender, uint256 _value) public returns (bool success){\r\n\t\t//set the allowance\r\n\t\tallowance[msg.sender][_spender] = _value;\r\n\r\n\t\t//trigger an approve event\r\n\t\temit Approval(msg.sender, _spender, _value);\r\n\r\n\t\treturn true;\r\n\t}\r\n\t\r\n\t//function which transfers _value amount of tokens from address _from to address _to, and MUST fire the Transfer event\r\n\tfunction transferFrom(address _from, address _to, uint256 _value) public returns (bool success) {\r\n\t\t//require _from has enough tokens\r\n\t\trequire(_value <= balanceOf[_from]);\r\n\r\n\t\t//require allowance is big enough so msg.sender cannot spend more than how much he's allowed to on behalf of _from account\r\n\t\trequire(_value <= allowance[_from][msg.sender]);\r\n\r\n\t\t//change the balance\r\n\t\tbalanceOf[_from] -= _value;\r\n\t\tbalanceOf[_to] += _value;\r\n\r\n\t\t//update the allowance\r\n\t\tallowance[_from][msg.sender] -= _value;\r\n\r\n\t\t//transfer event\r\n\t\temit Transfer(_from, _to, _value);\r\n\r\n\t\treturn true;\t\r\n\t}\r\n\r\n\t//_______________IPFS hash and student payment integration_______________//\r\n\r\n\t//takes a string x as input and stores its value to the ipfsHash variable\r\n\tfunction sendHash(string memory _x) public {\r\n\t\tipfsHash = _x;\r\n\t}\r\n\r\n\t/*\r\n\t * public function with mutability view, which means it can only view, not modify the Ethereum blockchains state and returns \r\n\t * the hash stored in the variable ipfsHash\r\n\t*/\r\n\tfunction getHash() public view returns (string memory) {\r\n\t\treturn ipfsHash;\r\n\t}\r\n\r\n\tmodifier _ownerOnly() {\r\n\t\trequire(msg.sender == owner); \r\n      _;\r\n\t}\r\n\r\n\t//once used on a function then only the mentioned caller can call this function\r\n\tmodifier _allowedOnly() {\r\n      require(msg.sender == owner || (msg.sender != owner && isAnAllowedTeacher(msg.sender) == true));\r\n      _;\r\n  \t}\r\n\r\n  \tfunction addTeacher(string memory _teacherName, address _teacherAddress) public _ownerOnly {\r\n  \t\tteachers.push(Teacher(_teacherName, _teacherAddress));\r\n  \t}\r\n\r\n  \tfunction getTeacherName(Teacher memory _teacher) public pure returns (string memory) {\r\n  \t\treturn _teacher.name;\r\n  \t}\r\n  \tfunction getTeacherAddress(Teacher memory _teacher) public pure returns (address) {\r\n      return _teacher.teacherAddress;\r\n   \t}\r\n\r\n  \tfunction isAnAllowedTeacher(address _teacherAddress) public view returns (bool) {\r\n  \t\tbool isPresent;\r\n  \t\tfor (uint i = 0; i < teachers.length; i++) {\r\n            if (_teacherAddress == getTeacherAddress(teachers[i])) {\r\n                isPresent = true;\r\n                break;\r\n            }\r\n            else {\r\n            \tisPresent = false;\r\n            }\r\n        }\r\n        return isPresent;\r\n  \t}\r\n\r\n\t//function which will manage the token payment\r\n\tfunction payStudent(address _studentAddress, string memory _hash, uint256 _amount) public _allowedOnly {\r\n\t\ttransfer(_studentAddress, _amount);\r\n\t}\r\n}\r\n",
  "sourcePath": "C:\\Users\\matte\\Documents\\SKR\\contracts\\SKR.sol",
  "compiler": {
    "name": "solc",
    "version": "0.5.16+commit.9c3226ce.Emscripten.clang"
  },
  "schemaVersion": "3.4.3",
  "updatedAt": "2022-01-18T15:39:28.968Z",
  "devdoc": {
    "methods": {}
  },
  "userdoc": {
    "methods": {}
  }
}